{
  "contractName": "KyberSwap",
  "abi": [
    {
      "inputs": [
        {
          "internalType": "uint256",
          "name": "_ethToERC20Rate",
          "type": "uint256"
        },
        {
          "internalType": "address",
          "name": "tokenAddress",
          "type": "address"
        }
      ],
      "stateMutability": "nonpayable",
      "type": "constructor"
    },
    {
      "anonymous": false,
      "inputs": [
        {
          "indexed": true,
          "internalType": "address",
          "name": "purchaser",
          "type": "address"
        },
        {
          "indexed": true,
          "internalType": "address",
          "name": "beneficiary",
          "type": "address"
        },
        {
          "indexed": false,
          "internalType": "uint256",
          "name": "weiReceived",
          "type": "uint256"
        },
        {
          "indexed": false,
          "internalType": "uint256",
          "name": "tokenSpent",
          "type": "uint256"
        }
      ],
      "name": "EthPurchase",
      "type": "event"
    },
    {
      "anonymous": false,
      "inputs": [
        {
          "indexed": true,
          "internalType": "address",
          "name": "previousOwner",
          "type": "address"
        },
        {
          "indexed": true,
          "internalType": "address",
          "name": "newOwner",
          "type": "address"
        }
      ],
      "name": "OwnershipTransferred",
      "type": "event"
    },
    {
      "anonymous": false,
      "inputs": [
        {
          "indexed": false,
          "internalType": "uint256",
          "name": "newRate",
          "type": "uint256"
        }
      ],
      "name": "RateChange",
      "type": "event"
    },
    {
      "anonymous": false,
      "inputs": [
        {
          "indexed": true,
          "internalType": "address",
          "name": "newAddress",
          "type": "address"
        }
      ],
      "name": "TokenChange",
      "type": "event"
    },
    {
      "anonymous": false,
      "inputs": [
        {
          "indexed": true,
          "internalType": "address",
          "name": "purchaser",
          "type": "address"
        },
        {
          "indexed": true,
          "internalType": "address",
          "name": "beneficiary",
          "type": "address"
        },
        {
          "indexed": false,
          "internalType": "uint256",
          "name": "weiSpent",
          "type": "uint256"
        },
        {
          "indexed": false,
          "internalType": "uint256",
          "name": "tokenReceived",
          "type": "uint256"
        }
      ],
      "name": "TokenPurchase",
      "type": "event"
    },
    {
      "inputs": [],
      "name": "ethToERC20Rate",
      "outputs": [
        {
          "internalType": "uint256",
          "name": "",
          "type": "uint256"
        }
      ],
      "stateMutability": "view",
      "type": "function",
      "constant": true
    },
    {
      "inputs": [],
      "name": "owner",
      "outputs": [
        {
          "internalType": "address",
          "name": "",
          "type": "address"
        }
      ],
      "stateMutability": "view",
      "type": "function",
      "constant": true
    },
    {
      "inputs": [],
      "name": "renounceOwnership",
      "outputs": [],
      "stateMutability": "nonpayable",
      "type": "function"
    },
    {
      "inputs": [],
      "name": "token",
      "outputs": [
        {
          "internalType": "contract IERC20",
          "name": "",
          "type": "address"
        }
      ],
      "stateMutability": "view",
      "type": "function",
      "constant": true
    },
    {
      "inputs": [
        {
          "internalType": "address",
          "name": "newOwner",
          "type": "address"
        }
      ],
      "name": "transferOwnership",
      "outputs": [],
      "stateMutability": "nonpayable",
      "type": "function"
    },
    {
      "stateMutability": "payable",
      "type": "receive",
      "payable": true
    },
    {
      "inputs": [
        {
          "internalType": "address payable",
          "name": "_beneficiary",
          "type": "address"
        }
      ],
      "name": "swapEthForERC20",
      "outputs": [],
      "stateMutability": "payable",
      "type": "function",
      "payable": true
    },
    {
      "inputs": [
        {
          "internalType": "address payable",
          "name": "trader",
          "type": "address"
        },
        {
          "internalType": "uint256",
          "name": "_tokenAmt",
          "type": "uint256"
        }
      ],
      "name": "swapERC20ForEth",
      "outputs": [],
      "stateMutability": "nonpayable",
      "type": "function"
    },
    {
      "inputs": [
        {
          "internalType": "address",
          "name": "addr",
          "type": "address"
        }
      ],
      "name": "withdrawAllTokens",
      "outputs": [],
      "stateMutability": "nonpayable",
      "type": "function"
    },
    {
      "inputs": [
        {
          "internalType": "address payable",
          "name": "addr",
          "type": "address"
        }
      ],
      "name": "WithdrawAllEth",
      "outputs": [],
      "stateMutability": "nonpayable",
      "type": "function"
    },
    {
      "inputs": [],
      "name": "getEthToERC20Rate",
      "outputs": [
        {
          "internalType": "uint256",
          "name": "",
          "type": "uint256"
        }
      ],
      "stateMutability": "view",
      "type": "function",
      "constant": true
    },
    {
      "inputs": [
        {
          "internalType": "address",
          "name": "_newTokenAddress",
          "type": "address"
        }
      ],
      "name": "setToken",
      "outputs": [],
      "stateMutability": "nonpayable",
      "type": "function"
    },
    {
      "inputs": [
        {
          "internalType": "uint256",
          "name": "_ethToERC20Rate",
          "type": "uint256"
        }
      ],
      "name": "setEthToERC20Rate",
      "outputs": [],
      "stateMutability": "nonpayable",
      "type": "function"
    }
  ],
  "bytecode": "0x608060405234801561001057600080fd5b5060405161199d38038061199d8339818101604052604081101561003357600080fd5b810190808051906020019092919080519060200190929190505050600061005e61014b60201b60201c565b9050806000806101000a81548173ffffffffffffffffffffffffffffffffffffffff021916908373ffffffffffffffffffffffffffffffffffffffff1602179055508073ffffffffffffffffffffffffffffffffffffffff16600073ffffffffffffffffffffffffffffffffffffffff167f8be0079c531659141344cd1fd0a4f28419497f9722a3daafe3b4186f6b6457e060405160405180910390a3508160018190555080600260006101000a81548173ffffffffffffffffffffffffffffffffffffffff021916908373ffffffffffffffffffffffffffffffffffffffff1602179055505050610153565b600033905090565b61183b806101626000396000f3fe6080604052600436106100ab5760003560e01c8063715018a611610064578063715018a6146102675780638da5cb5b1461027e578063a878aee6146102bf578063d3a6f38614610310578063f2fde38b1461033b578063fc0c546a1461038c576100bb565b806302beeb9e146100c0578063144fa6d7146101045780633bbacdac146101555780633f208d35146101b0578063568b5866146101db5780635e6a9a6514610216576100bb565b366100bb576100b9336103cd565b005b600080fd5b610102600480360360208110156100d657600080fd5b81019080803573ffffffffffffffffffffffffffffffffffffffff1690602001909291905050506103cd565b005b34801561011057600080fd5b506101536004803603602081101561012757600080fd5b81019080803573ffffffffffffffffffffffffffffffffffffffff16906020019092919050505061053a565b005b34801561016157600080fd5b506101ae6004803603604081101561017857600080fd5b81019080803573ffffffffffffffffffffffffffffffffffffffff1690602001909291908035906020019092919050505061070f565b005b3480156101bc57600080fd5b506101c56109bb565b6040518082815260200191505060405180910390f35b3480156101e757600080fd5b50610214600480360360208110156101fe57600080fd5b81019080803590602001909291905050506109c1565b005b34801561022257600080fd5b506102656004803603602081101561023957600080fd5b81019080803573ffffffffffffffffffffffffffffffffffffffff169060200190929190505050610b24565b005b34801561027357600080fd5b5061027c610cbc565b005b34801561028a57600080fd5b50610293610e42565b604051808273ffffffffffffffffffffffffffffffffffffffff16815260200191505060405180910390f35b3480156102cb57600080fd5b5061030e600480360360208110156102e257600080fd5b81019080803573ffffffffffffffffffffffffffffffffffffffff169060200190929190505050610e6b565b005b34801561031c57600080fd5b5061032561114e565b6040518082815260200191505060405180910390f35b34801561034757600080fd5b5061038a6004803603602081101561035e57600080fd5b81019080803573ffffffffffffffffffffffffffffffffffffffff169060200190929190505050611158565b005b34801561039857600080fd5b506103a1611363565b604051808273ffffffffffffffffffffffffffffffffffffffff16815260200191505060405180910390f35b60003411610426576040517f08c379a00000000000000000000000000000000000000000000000000000000081526004018080602001828103825260358152602001806116f36035913960400191505060405180910390fd5b600073ffffffffffffffffffffffffffffffffffffffff168173ffffffffffffffffffffffffffffffffffffffff1614156104ac576040517f08c379a000000000000000000000000000000000000000000000000000000000815260040180806020018281038252603b8152602001806117cb603b913960400191505060405180910390fd5b600034905060006104bc82611389565b90506104c883826113ac565b8273ffffffffffffffffffffffffffffffffffffffff163373ffffffffffffffffffffffffffffffffffffffff167f623b3804fa71d67900d064613da8f94b9617215ee90799290593e1745087ad188484604051808381526020018281526020019250505060405180910390a3505050565b61054261147f565b73ffffffffffffffffffffffffffffffffffffffff1660008054906101000a900473ffffffffffffffffffffffffffffffffffffffff1673ffffffffffffffffffffffffffffffffffffffff1614610602576040517f08c379a00000000000000000000000000000000000000000000000000000000081526004018080602001828103825260208152602001807f4f776e61626c653a2063616c6c6572206973206e6f7420746865206f776e657281525060200191505060405180910390fd5b600073ffffffffffffffffffffffffffffffffffffffff168173ffffffffffffffffffffffffffffffffffffffff161415610688576040517f08c379a000000000000000000000000000000000000000000000000000000000815260040180806020018281038252602f8152602001806116a3602f913960400191505060405180910390fd5b80600260006101000a81548173ffffffffffffffffffffffffffffffffffffffff021916908373ffffffffffffffffffffffffffffffffffffffff1602179055508073ffffffffffffffffffffffffffffffffffffffff167f0e6436d2b3e53a8a3ec2fbdd1d22525f0cd81d796bcb4beeef7337031a7e5efa60405160405180910390a250565b60008111610768576040517f08c379a00000000000000000000000000000000000000000000000000000000081526004018080602001828103825260378152602001806117946037913960400191505060405180910390fd5b600073ffffffffffffffffffffffffffffffffffffffff168273ffffffffffffffffffffffffffffffffffffffff1614156107ee576040517f08c379a00000000000000000000000000000000000000000000000000000000081526004018080602001828103825260378152602001806117286037913960400191505060405180910390fd5b600260009054906101000a900473ffffffffffffffffffffffffffffffffffffffff1673ffffffffffffffffffffffffffffffffffffffff166323b872dd8330846040518463ffffffff1660e01b8152600401808473ffffffffffffffffffffffffffffffffffffffff1681526020018373ffffffffffffffffffffffffffffffffffffffff1681526020018281526020019350505050602060405180830381600087803b15801561089f57600080fd5b505af11580156108b3573d6000803e3d6000fd5b505050506040513d60208110156108c957600080fd5b8101908080519060200190929190505050508173ffffffffffffffffffffffffffffffffffffffff166108fc61090a6001548461148790919063ffffffff16565b9081150290604051600060405180830381858888f19350505050158015610935573d6000803e3d6000fd5b508173ffffffffffffffffffffffffffffffffffffffff168273ffffffffffffffffffffffffffffffffffffffff167f90e08377d523c5e583beefcdb6735844f8d4e305be8e4e4003e940ee726ce24c8361099b6001548661148790919063ffffffff16565b604051808381526020018281526020019250505060405180910390a35050565b60015481565b6109c961147f565b73ffffffffffffffffffffffffffffffffffffffff1660008054906101000a900473ffffffffffffffffffffffffffffffffffffffff1673ffffffffffffffffffffffffffffffffffffffff1614610a89576040517f08c379a00000000000000000000000000000000000000000000000000000000081526004018080602001828103825260208152602001807f4f776e61626c653a2063616c6c6572206973206e6f7420746865206f776e657281525060200191505060405180910390fd5b6000811415610ae3576040517f08c379a000000000000000000000000000000000000000000000000000000000815260040180806020018281038252602d815260200180611676602d913960400191505060405180910390fd5b806001819055507f0b6eb270e68ec2b65cffce354325dcd6cb2449e0e8fec1184cd58da0c7b0344b816040518082815260200191505060405180910390a150565b610b2c61147f565b73ffffffffffffffffffffffffffffffffffffffff1660008054906101000a900473ffffffffffffffffffffffffffffffffffffffff1673ffffffffffffffffffffffffffffffffffffffff1614610bec576040517f08c379a00000000000000000000000000000000000000000000000000000000081526004018080602001828103825260208152602001807f4f776e61626c653a2063616c6c6572206973206e6f7420746865206f776e657281525060200191505060405180910390fd5b600073ffffffffffffffffffffffffffffffffffffffff168173ffffffffffffffffffffffffffffffffffffffff161415610c72576040517f08c379a000000000000000000000000000000000000000000000000000000000815260040180806020018281038252603281526020018061161e6032913960400191505060405180910390fd5b8073ffffffffffffffffffffffffffffffffffffffff166108fc479081150290604051600060405180830381858888f19350505050158015610cb8573d6000803e3d6000fd5b5050565b610cc461147f565b73ffffffffffffffffffffffffffffffffffffffff1660008054906101000a900473ffffffffffffffffffffffffffffffffffffffff1673ffffffffffffffffffffffffffffffffffffffff1614610d84576040517f08c379a00000000000000000000000000000000000000000000000000000000081526004018080602001828103825260208152602001807f4f776e61626c653a2063616c6c6572206973206e6f7420746865206f776e657281525060200191505060405180910390fd5b600073ffffffffffffffffffffffffffffffffffffffff1660008054906101000a900473ffffffffffffffffffffffffffffffffffffffff1673ffffffffffffffffffffffffffffffffffffffff167f8be0079c531659141344cd1fd0a4f28419497f9722a3daafe3b4186f6b6457e060405160405180910390a360008060006101000a81548173ffffffffffffffffffffffffffffffffffffffff021916908373ffffffffffffffffffffffffffffffffffffffff160217905550565b60008060009054906101000a900473ffffffffffffffffffffffffffffffffffffffff16905090565b610e7361147f565b73ffffffffffffffffffffffffffffffffffffffff1660008054906101000a900473ffffffffffffffffffffffffffffffffffffffff1673ffffffffffffffffffffffffffffffffffffffff1614610f33576040517f08c379a00000000000000000000000000000000000000000000000000000000081526004018080602001828103825260208152602001807f4f776e61626c653a2063616c6c6572206973206e6f7420746865206f776e657281525060200191505060405180910390fd5b600073ffffffffffffffffffffffffffffffffffffffff168173ffffffffffffffffffffffffffffffffffffffff161415610fb9576040517f08c379a000000000000000000000000000000000000000000000000000000000815260040180806020018281038252603581526020018061175f6035913960400191505060405180910390fd5b600260009054906101000a900473ffffffffffffffffffffffffffffffffffffffff1673ffffffffffffffffffffffffffffffffffffffff1663a9059cbb82600260009054906101000a900473ffffffffffffffffffffffffffffffffffffffff1673ffffffffffffffffffffffffffffffffffffffff166370a08231306040518263ffffffff1660e01b8152600401808273ffffffffffffffffffffffffffffffffffffffff16815260200191505060206040518083038186803b15801561108157600080fd5b505afa158015611095573d6000803e3d6000fd5b505050506040513d60208110156110ab57600080fd5b81019080805190602001909291905050506040518363ffffffff1660e01b8152600401808373ffffffffffffffffffffffffffffffffffffffff16815260200182815260200192505050602060405180830381600087803b15801561110f57600080fd5b505af1158015611123573d6000803e3d6000fd5b505050506040513d602081101561113957600080fd5b81019080805190602001909291905050505050565b6000600154905090565b61116061147f565b73ffffffffffffffffffffffffffffffffffffffff1660008054906101000a900473ffffffffffffffffffffffffffffffffffffffff1673ffffffffffffffffffffffffffffffffffffffff1614611220576040517f08c379a00000000000000000000000000000000000000000000000000000000081526004018080602001828103825260208152602001807f4f776e61626c653a2063616c6c6572206973206e6f7420746865206f776e657281525060200191505060405180910390fd5b600073ffffffffffffffffffffffffffffffffffffffff168173ffffffffffffffffffffffffffffffffffffffff1614156112a6576040517f08c379a00000000000000000000000000000000000000000000000000000000081526004018080602001828103825260268152602001806116506026913960400191505060405180910390fd5b8073ffffffffffffffffffffffffffffffffffffffff1660008054906101000a900473ffffffffffffffffffffffffffffffffffffffff1673ffffffffffffffffffffffffffffffffffffffff167f8be0079c531659141344cd1fd0a4f28419497f9722a3daafe3b4186f6b6457e060405160405180910390a3806000806101000a81548173ffffffffffffffffffffffffffffffffffffffff021916908373ffffffffffffffffffffffffffffffffffffffff16021790555050565b600260009054906101000a900473ffffffffffffffffffffffffffffffffffffffff1681565b6000806113a1600154846114d190919063ffffffff16565b905080915050919050565b600260009054906101000a900473ffffffffffffffffffffffffffffffffffffffff1673ffffffffffffffffffffffffffffffffffffffff1663a9059cbb83836040518363ffffffff1660e01b8152600401808373ffffffffffffffffffffffffffffffffffffffff16815260200182815260200192505050602060405180830381600087803b15801561143f57600080fd5b505af1158015611453573d6000803e3d6000fd5b505050506040513d602081101561146957600080fd5b8101908080519060200190929190505050505050565b600033905090565b60006114c983836040518060400160405280601a81526020017f536166654d6174683a206469766973696f6e206279207a65726f000000000000815250611557565b905092915050565b6000808314156114e45760009050611551565b60008284029050828482816114f557fe5b041461154c576040517f08c379a00000000000000000000000000000000000000000000000000000000081526004018080602001828103825260218152602001806116d26021913960400191505060405180910390fd5b809150505b92915050565b60008083118290611603576040517f08c379a00000000000000000000000000000000000000000000000000000000081526004018080602001828103825283818151815260200191508051906020019080838360005b838110156115c85780820151818401526020810190506115ad565b50505050905090810190601f1680156115f55780820380516001836020036101000a031916815260200191505b509250505060405180910390fd5b50600083858161160f57fe5b04905080915050939250505056fe5769746864726177416c6c4574683a205769746864726177616c20616464726573732063616e206e6f74206265207a65726f4f776e61626c653a206e6577206f776e657220697320746865207a65726f2061646472657373736574457468546f4552433230526174653a20546f6b656e20726174652063616e204e4f54206265207a65726f736574546f6b656e3a20546f6b656e20616464726573732063616e204e4f54206265207a65726f2061646472657373536166654d6174683a206d756c7469706c69636174696f6e206f766572666c6f7773776170457468466f7242455032303a2053656e742076616c7565206d7573742062652067726561746572207468616e207a65726f73776170457468466f7242455032303a2054726164657220616464726573732063616e204e4f54206265207a65726f20616464726573735769746864726177416c6c546f6b656e733a205769746864726177616c20616464726573732063616e206e6f74206265207a65726f737761704552433230466f724574683a20546f6b656e20616d6f756e74206d7573742062652067726561746572207468616e207a65726f73776170457468466f7242455032303a2050757263686173696e6720616464726573732063616e204e4f54206265207a65726f2061646472657373a264697066735822122098f74797f0463d7257a2782040796471adc3051b9a06556154388a7f4c2cf86064736f6c634300060c0033",
  "immutableReferences": {},
  "source": "\r\n// SPDX-License-Identifier: MIT\r\n\r\npragma solidity ^0.6.12;\r\n\r\n// import \"./helpers/Ownable.sol\";\r\n// import \"./helpers/SafeMath.sol\";\r\n// import \"./helpers/IERC20.sol\";\r\n\r\nimport \"@openzeppelin/contracts/math/SafeMath.sol\";\r\nimport \"@openzeppelin/contracts/access/Ownable.sol\";\r\nimport \"@openzeppelin/contracts/token/ERC20/IERC20.sol\";\r\n\r\n\r\n/**\r\n * @title KyberSwap\r\n * @dev KyberSwap is a base contract for managing a token trade,\r\n * allowing traders to trade between a custom token and ether. This contract implements\r\n * such functionality in its most fundamental form and can be extended to provide additional\r\n * functionality and/or custom behavior.\r\n * The external interface represents the basic interface for trading tokens, and conform\r\n * the base architecture for trades. They are *not* intended to be modified / overriden.\r\n * The internal interface conforms the extensible and modifiable surface of token trades. Override\r\n * the methods to add functionality. Consider using 'super' where appropiate to concatenate\r\n * behavior.\r\n */\r\ncontract KyberSwap is Ownable{\r\n  using SafeMath for uint256;\r\n\r\n    // trading rate\r\n    uint256 public ethToERC20Rate;\r\n\r\n    // token interface\r\n    IERC20 public token;\r\n    \r\n  /**\r\n   * Event for token purchase logging\r\n   * @param purchaser who paid for the tokens\r\n   * @param beneficiary who got the tokens\r\n   * @param weiSpent weis paid for purchase\r\n   * @param tokenReceived amount of tokens purchased\r\n   */\r\n  event TokenPurchase(\r\n    address indexed purchaser,\r\n    address indexed beneficiary,\r\n    uint256 weiSpent,\r\n    uint256 tokenReceived\r\n  );\r\n\r\n  \r\n  /**\r\n   * Event for eth purchase logging\r\n   * @param purchaser who paid for the tokens\r\n   * @param beneficiary who got the tokens\r\n   * @param weiReceived weis paid purchased\r\n   * @param tokenSpent amount of tokens for purchase\r\n   */\r\n  event EthPurchase(\r\n    address indexed purchaser,\r\n    address indexed beneficiary,\r\n    uint256 weiReceived,\r\n    uint256 tokenSpent\r\n  );\r\n\r\n  /**\r\n   * Event for token address change logging\r\n   * @param newAddress New token address\r\n   */\r\n  event TokenChange(\r\n    address indexed newAddress\r\n  );\r\n\r\n  /**\r\n  * Event for trade rate logging\r\n  * @param newRate New trade rate\r\n   */\r\n  event RateChange(\r\n      uint256 newRate\r\n  );\r\n\r\n  constructor(uint256 _ethToERC20Rate, address tokenAddress) public {\r\n    // token = IBEP20(_tokenAddress);\r\n    ethToERC20Rate = _ethToERC20Rate;\r\n    token = IERC20(tokenAddress);\r\n  }\r\n\r\n  /**\r\n   * @dev fallback function ***DO NOT OVERRIDE***\r\n   */\r\n  receive() external payable {\r\n    \r\n    // process the token purchase\r\n    swapEthForERC20(msg.sender);\r\n  }\r\n\r\n  /**\r\n   * @dev low level token purchase ***DO NOT OVERRIDE***\r\n   * @param _beneficiary Address performing the token purchase\r\n   */\r\n  function swapEthForERC20(address payable _beneficiary) public payable {\r\n    require(msg.value > 0, \"swapEthForBEP20: Sent value must be greater than zero\");\r\n    require(_beneficiary != address(0), \"swapEthForBEP20: Purchasing address can NOT be zero address\");\r\n    uint256 weiAmount = msg.value;\r\n    \r\n\r\n    // calculate token amount to be created\r\n    uint256 tokens = _getTokenAmount(weiAmount);\r\n    \r\n    // update state\r\n    _processPurchase(_beneficiary, tokens);\r\n    emit TokenPurchase(\r\n      msg.sender,\r\n      _beneficiary,\r\n      weiAmount,\r\n      tokens\r\n    );\r\n  }\r\n\r\n  \r\n  \r\n  /**\r\n   * @dev low level token purchase ***DO NOT OVERRIDE***\r\n   * @param trader Address performing the token purchase\r\n   * @param _tokenAmt amount of token spent for the purchase\r\n   */\r\n  function swapERC20ForEth(address payable trader, uint256 _tokenAmt) public{\r\n    require(_tokenAmt > 0, \"swapERC20ForEth: Token amount must be greater than zero\");\r\n    require(trader != address(0), \"swapEthForBEP20: Trader address can NOT be zero address\");\r\n    \r\n    // Transfer token from trader to smart contract\r\n    token.transferFrom(trader, address(this), _tokenAmt);\r\n\r\n    // transfer Eth from the smart contract to the trader\r\n    trader.transfer(_tokenAmt.div(ethToERC20Rate));\r\n\r\n    emit EthPurchase(\r\n      trader,\r\n      trader,\r\n      _tokenAmt,\r\n      _tokenAmt.div(ethToERC20Rate)\r\n    );\r\n\r\n  }\r\n\r\n  /**\r\n   * @dev Executed when a purchase has been validated and is ready to be executed. Not necessarily emits/sends tokens.\r\n   * @param _beneficiary Address receiving the tokens\r\n   * @param _tokenAmount Number of tokens to be purchased\r\n   */\r\n  function _processPurchase(address _beneficiary, uint256 _tokenAmount) internal{\r\n        \r\n    token.transfer(_beneficiary, _tokenAmount);\r\n  }\r\n    \r\n\r\n  /**\r\n   * @dev Override to extend the way in which ether is converted to tokens.\r\n   * @param _weiAmount Value in wei to be converted into tokens\r\n   * @return Number of tokens that can be purchased with the specified _weiAmount\r\n   */\r\n  function _getTokenAmount(uint256 _weiAmount)\r\n    internal view returns (uint256)\r\n  {\r\n     uint256 tokenAmt = _weiAmount.mul(ethToERC20Rate);    \r\n    \r\n    return tokenAmt;\r\n  }\r\n\r\n  function withdrawAllTokens(address addr) public onlyOwner{\r\n      require(addr != address(0), \"WithdrawAllTokens: Withdrawal address can not be zero\");\r\n      token.transfer(addr, token.balanceOf(address(this)));\r\n  }\r\n  \r\n  function WithdrawAllEth(address payable addr) public onlyOwner{\r\n      require(addr != address(0), \"WithdrawAllEth: Withdrawal address can not be zero\");\r\n      addr.transfer(address(this).balance);\r\n  }\r\n\r\n\r\n    /**\r\n    * @dev Returns the rate for trading eth to ERC20 token.\r\n    * @return Number of tokens that can be purchased with the specified _weiAmount\r\n    */\r\n  function getEthToERC20Rate() public view returns(uint256){\r\n    return ethToERC20Rate;\r\n  }\r\n\r\n  /**\r\n  * @dev Sets a new token for trading\r\n  * @param _newTokenAddress Address for the new token\r\n   */\r\n  function setToken(address _newTokenAddress) public onlyOwner {\r\n      require(_newTokenAddress != address(0), \"setToken: Token address can NOT be zero address\");\r\n      token = IERC20(_newTokenAddress);\r\n      emit TokenChange(_newTokenAddress);\r\n  }\r\n\r\n  /**\r\n  * @dev Sets a new rate for trading\r\n  * @param _ethToERC20Rate Address for the new token\r\n   */\r\n  function setEthToERC20Rate(uint256 _ethToERC20Rate) public onlyOwner {\r\n      require(_ethToERC20Rate != 0, \"setEthToERC20Rate: Token rate can NOT be zero\");\r\n      ethToERC20Rate = _ethToERC20Rate;\r\n      emit RateChange(_ethToERC20Rate);\r\n  }\r\n  \r\n\r\n}",
  "sourcePath": "C:\\Users\\PC\\Documents\\rigel-protocol-task\\KyberSwap-contract\\contracts\\KyberSwap.sol",
  "compiler": {
    "name": "solc",
    "version": "0.6.12+commit.27d51765.Emscripten.clang"
  },
  "schemaVersion": "3.4.3",
  "updatedAt": "2022-02-22T12:56:33.031Z",
  "networkType": "ethereum",
  "devdoc": {
    "details": "KyberSwap is a base contract for managing a token trade, allowing traders to trade between a custom token and ether. This contract implements such functionality in its most fundamental form and can be extended to provide additional functionality and/or custom behavior. The external interface represents the basic interface for trading tokens, and conform the base architecture for trades. They are *not* intended to be modified / overriden. The internal interface conforms the extensible and modifiable surface of token trades. Override the methods to add functionality. Consider using 'super' where appropiate to concatenate behavior.",
    "events": {
      "EthPurchase(address,address,uint256,uint256)": {
        "params": {
          "beneficiary": "who got the tokens",
          "purchaser": "who paid for the tokens",
          "tokenSpent": "amount of tokens for purchase",
          "weiReceived": "weis paid purchased"
        }
      },
      "RateChange(uint256)": {
        "params": {
          "newRate": "New trade rate"
        }
      },
      "TokenChange(address)": {
        "params": {
          "newAddress": "New token address"
        }
      },
      "TokenPurchase(address,address,uint256,uint256)": {
        "params": {
          "beneficiary": "who got the tokens",
          "purchaser": "who paid for the tokens",
          "tokenReceived": "amount of tokens purchased",
          "weiSpent": "weis paid for purchase"
        }
      }
    },
    "kind": "dev",
    "methods": {
      "getEthToERC20Rate()": {
        "details": "Returns the rate for trading eth to ERC20 token.",
        "returns": {
          "_0": "Number of tokens that can be purchased with the specified _weiAmount"
        }
      },
      "owner()": {
        "details": "Returns the address of the current owner."
      },
      "renounceOwnership()": {
        "details": "Leaves the contract without owner. It will not be possible to call `onlyOwner` functions anymore. Can only be called by the current owner. NOTE: Renouncing ownership will leave the contract without an owner, thereby removing any functionality that is only available to the owner."
      },
      "setEthToERC20Rate(uint256)": {
        "details": "Sets a new rate for trading",
        "params": {
          "_ethToERC20Rate": "Address for the new token"
        }
      },
      "setToken(address)": {
        "details": "Sets a new token for trading",
        "params": {
          "_newTokenAddress": "Address for the new token"
        }
      },
      "swapERC20ForEth(address,uint256)": {
        "details": "low level token purchase ***DO NOT OVERRIDE***",
        "params": {
          "_tokenAmt": "amount of token spent for the purchase",
          "trader": "Address performing the token purchase"
        }
      },
      "swapEthForERC20(address)": {
        "details": "low level token purchase ***DO NOT OVERRIDE***",
        "params": {
          "_beneficiary": "Address performing the token purchase"
        }
      },
      "transferOwnership(address)": {
        "details": "Transfers ownership of the contract to a new account (`newOwner`). Can only be called by the current owner."
      }
    },
    "title": "KyberSwap",
    "version": 1
  },
  "userdoc": {
    "events": {
      "EthPurchase(address,address,uint256,uint256)": {
        "notice": "Event for eth purchase logging"
      },
      "RateChange(uint256)": {
        "notice": "Event for trade rate logging"
      },
      "TokenChange(address)": {
        "notice": "Event for token address change logging"
      },
      "TokenPurchase(address,address,uint256,uint256)": {
        "notice": "Event for token purchase logging"
      }
    },
    "kind": "user",
    "methods": {},
    "version": 1
  }
}